{"abi":[{"type":"constructor","inputs":[{"name":"_entryPoint","type":"address","internalType":"address"}],"stateMutability":"nonpayable"},{"type":"receive","stateMutability":"payable"},{"type":"function","name":"addBatchToWhitelist","inputs":[{"name":"accounts","type":"address[]","internalType":"address[]"}],"outputs":[],"stateMutability":"nonpayable"},{"type":"function","name":"addToWhitelist","inputs":[{"name":"account","type":"address","internalType":"address"}],"outputs":[],"stateMutability":"nonpayable"},{"type":"function","name":"deposit","inputs":[],"outputs":[],"stateMutability":"payable"},{"type":"function","name":"entryPoint","inputs":[],"outputs":[{"name":"","type":"address","internalType":"address"}],"stateMutability":"view"},{"type":"function","name":"owner","inputs":[],"outputs":[{"name":"","type":"address","internalType":"address"}],"stateMutability":"view"},{"type":"function","name":"postOp","inputs":[{"name":"","type":"uint8","internalType":"uint8"},{"name":"context","type":"bytes","internalType":"bytes"},{"name":"actualGasCost","type":"uint256","internalType":"uint256"},{"name":"","type":"uint256","internalType":"uint256"}],"outputs":[],"stateMutability":"nonpayable"},{"type":"function","name":"removeFromWhitelist","inputs":[{"name":"account","type":"address","internalType":"address"}],"outputs":[],"stateMutability":"nonpayable"},{"type":"function","name":"validatePaymasterUserOp","inputs":[{"name":"","type":"bytes","internalType":"bytes"},{"name":"","type":"bytes32","internalType":"bytes32"},{"name":"maxCost","type":"uint256","internalType":"uint256"}],"outputs":[{"name":"context","type":"bytes","internalType":"bytes"},{"name":"validationData","type":"uint256","internalType":"uint256"}],"stateMutability":"nonpayable"},{"type":"function","name":"whitelist","inputs":[{"name":"","type":"address","internalType":"address"}],"outputs":[{"name":"","type":"bool","internalType":"bool"}],"stateMutability":"view"},{"type":"function","name":"withdrawTo","inputs":[{"name":"to","type":"address","internalType":"address payable"},{"name":"amount","type":"uint256","internalType":"uint256"}],"outputs":[],"stateMutability":"nonpayable"},{"type":"event","name":"Deposited","inputs":[{"name":"from","type":"address","indexed":true,"internalType":"address"},{"name":"amount","type":"uint256","indexed":false,"internalType":"uint256"}],"anonymous":false},{"type":"event","name":"WhitelistUpdated","inputs":[{"name":"account","type":"address","indexed":true,"internalType":"address"},{"name":"status","type":"bool","indexed":false,"internalType":"bool"}],"anonymous":false}],"bytecode":{"object":"0x60a060405234801561000f575f80fd5b50604051610ab4380380610ab483398101604081905261002e91610050565b5f80546001600160a01b031916331790556001600160a01b031660805261007d565b5f60208284031215610060575f80fd5b81516001600160a01b0381168114610076575f80fd5b9392505050565b608051610a0a6100aa5f395f81816101d2015281816102ee01528181610438015261060f0152610a0a5ff3fe608060405260043610610092575f3560e01c80639b19251a116100575780639b19251a14610164578063a3d19d8c146101a2578063b0d691fe146101c1578063d0e30db0146101f4578063e43252d7146101fc575f80fd5b8063205c28781461009d5780637c627b21146100be5780638ab1d681146100dd5780638da5cb5b146100fc57806395208bac14610137575f80fd5b3661009957005b5f80fd5b3480156100a8575f80fd5b506100bc6100b7366004610780565b61021b565b005b3480156100c9575f80fd5b506100bc6100d83660046107ef565b6102e3565b3480156100e8575f80fd5b506100bc6100f7366004610856565b6103ac565b348015610107575f80fd5b505f5461011a906001600160a01b031681565b6040516001600160a01b0390911681526020015b60405180910390f35b348015610142575f80fd5b50610156610151366004610878565b61042a565b60405161012e9291906108c5565b34801561016f575f80fd5b5061019261017e366004610856565b60016020525f908152604090205460ff1681565b604051901515815260200161012e565b3480156101ad575f80fd5b506100bc6101bc366004610917565b610513565b3480156101cc575f80fd5b5061011a7f000000000000000000000000000000000000000000000000000000000000000081565b6100bc61060c565b348015610207575f80fd5b506100bc610216366004610856565b6106ee565b5f546001600160a01b0316331461024d5760405162461bcd60e51b815260040161024490610986565b60405180910390fd5b5f826001600160a01b0316826040515f6040518083038185875af1925050503d805f8114610296576040519150601f19603f3d011682016040523d82523d5f602084013e61029b565b606091505b50509050806102de5760405162461bcd60e51b815260206004820152600f60248201526e1dda5d1a191c985dc819985a5b1959608a1b6044820152606401610244565b505050565b336001600160a01b037f000000000000000000000000000000000000000000000000000000000000000016146103515760405162461bcd60e51b81526020600482015260136024820152721b9bdd08199c9bdb48115b9d1c9e541bda5b9d606a1b6044820152606401610244565b5f61035e848601866109a9565b9050808311156103a45760405162461bcd60e51b815260206004820152601160248201527019d85cc818dbdcdd08195e18d959591959607a1b6044820152606401610244565b505050505050565b5f546001600160a01b031633146103d55760405162461bcd60e51b815260040161024490610986565b6001600160a01b0381165f818152600160209081526040808320805460ff19169055519182527ff93f9a76c1bf3444d22400a00cb9fe990e6abe9dbb333fda48859cfee864543d91015b60405180910390a250565b60605f336001600160a01b037f0000000000000000000000000000000000000000000000000000000000000000161461049b5760405162461bcd60e51b81526020600482015260136024820152721b9bdd08199c9bdb48115b9d1c9e541bda5b9d606a1b6044820152606401610244565b824710156104eb5760405162461bcd60e51b815260206004820152601f60248201527f7061796d61737465723a20696e73756666696369656e742062616c616e6365006044820152606401610244565b60408051602081018590520160408051601f19818403018152919052965f9650945050505050565b5f546001600160a01b0316331461053c5760405162461bcd60e51b815260040161024490610986565b5f5b818110156102de576001805f85858581811061055c5761055c6109c0565b90506020020160208101906105719190610856565b6001600160a01b0316815260208101919091526040015f20805460ff19169115159190911790558282828181106105aa576105aa6109c0565b90506020020160208101906105bf9190610856565b6001600160a01b03167ff93f9a76c1bf3444d22400a00cb9fe990e6abe9dbb333fda48859cfee864543d60016040516105fc911515815260200190565b60405180910390a260010161053e565b5f7f00000000000000000000000000000000000000000000000000000000000000006001600160a01b0316346040515f6040518083038185875af1925050503d805f8114610675576040519150601f19603f3d011682016040523d82523d5f602084013e61067a565b606091505b50509050806106bc5760405162461bcd60e51b815260206004820152600e60248201526d19195c1bdcda5d0819985a5b195960921b6044820152606401610244565b60405134815233907f2da466a7b24304f47e87fa2e1e5a81b9831ce54fec19055ce277ca2f39ba42c49060200161041f565b5f546001600160a01b031633146107175760405162461bcd60e51b815260040161024490610986565b6001600160a01b0381165f81815260016020818152604092839020805460ff19168317905591519081527ff93f9a76c1bf3444d22400a00cb9fe990e6abe9dbb333fda48859cfee864543d910161041f565b6001600160a01b038116811461077d575f80fd5b50565b5f8060408385031215610791575f80fd5b823561079c81610769565b946020939093013593505050565b5f8083601f8401126107ba575f80fd5b50813567ffffffffffffffff8111156107d1575f80fd5b6020830191508360208285010111156107e8575f80fd5b9250929050565b5f805f805f60808688031215610803575f80fd5b853560ff81168114610813575f80fd5b9450602086013567ffffffffffffffff81111561082e575f80fd5b61083a888289016107aa565b9699909850959660408101359660609091013595509350505050565b5f60208284031215610866575f80fd5b813561087181610769565b9392505050565b5f805f806060858703121561088b575f80fd5b843567ffffffffffffffff8111156108a1575f80fd5b6108ad878288016107aa565b90989097506020870135966040013595509350505050565b604081525f83518060408401525f5b818110156108f157602081870181015160608684010152016108d4565b505f606082850101526060601f19601f8301168401019150508260208301529392505050565b5f8060208385031215610928575f80fd5b823567ffffffffffffffff8082111561093f575f80fd5b818501915085601f830112610952575f80fd5b813581811115610960575f80fd5b8660208260051b8501011115610974575f80fd5b60209290920196919550909350505050565b6020808252600990820152683737ba1037bbb732b960b91b604082015260600190565b5f602082840312156109b9575f80fd5b5035919050565b634e487b7160e01b5f52603260045260245ffdfea2646970667358221220ff4bd2655afd56d4812cc112c89d2cfb025ffce70df6c59a7d7b0f479ffec76164736f6c63430008180033","linkReferences":{}},"methodIdentifiers":{"addBatchToWhitelist(address[])":"a3d19d8c","addToWhitelist(address)":"e43252d7","deposit()":"d0e30db0","entryPoint()":"b0d691fe","owner()":"8da5cb5b","postOp(uint8,bytes,uint256,uint256)":"7c627b21","removeFromWhitelist(address)":"8ab1d681","validatePaymasterUserOp(bytes,bytes32,uint256)":"95208bac","whitelist(address)":"9b19251a","withdrawTo(address,uint256)":"205c2878"},"id":3}