{"abi":[{"type":"constructor","inputs":[{"name":"_entryPoint","type":"address","internalType":"address"}],"stateMutability":"nonpayable"},{"type":"receive","stateMutability":"payable"},{"type":"function","name":"addBatchToWhitelist","inputs":[{"name":"accounts","type":"address[]","internalType":"address[]"}],"outputs":[],"stateMutability":"nonpayable"},{"type":"function","name":"addToWhitelist","inputs":[{"name":"account","type":"address","internalType":"address"}],"outputs":[],"stateMutability":"nonpayable"},{"type":"function","name":"deposit","inputs":[],"outputs":[],"stateMutability":"payable"},{"type":"function","name":"entryPoint","inputs":[],"outputs":[{"name":"","type":"address","internalType":"address"}],"stateMutability":"view"},{"type":"function","name":"getDeposit","inputs":[],"outputs":[{"name":"","type":"uint256","internalType":"uint256"}],"stateMutability":"view"},{"type":"function","name":"owner","inputs":[],"outputs":[{"name":"","type":"address","internalType":"address"}],"stateMutability":"view"},{"type":"function","name":"postOp","inputs":[{"name":"","type":"uint8","internalType":"enum IPaymaster.PostOpMode"},{"name":"context","type":"bytes","internalType":"bytes"},{"name":"actualGasCost","type":"uint256","internalType":"uint256"},{"name":"","type":"uint256","internalType":"uint256"}],"outputs":[],"stateMutability":"nonpayable"},{"type":"function","name":"removeFromWhitelist","inputs":[{"name":"account","type":"address","internalType":"address"}],"outputs":[],"stateMutability":"nonpayable"},{"type":"function","name":"validatePaymasterUserOp","inputs":[{"name":"userOp","type":"tuple","internalType":"struct PackedUserOperation","components":[{"name":"sender","type":"address","internalType":"address"},{"name":"nonce","type":"uint256","internalType":"uint256"},{"name":"initCode","type":"bytes","internalType":"bytes"},{"name":"callData","type":"bytes","internalType":"bytes"},{"name":"accountGasLimits","type":"bytes32","internalType":"bytes32"},{"name":"preVerificationGas","type":"uint256","internalType":"uint256"},{"name":"gasFees","type":"bytes32","internalType":"bytes32"},{"name":"paymasterAndData","type":"bytes","internalType":"bytes"},{"name":"signature","type":"bytes","internalType":"bytes"}]},{"name":"","type":"bytes32","internalType":"bytes32"},{"name":"maxCost","type":"uint256","internalType":"uint256"}],"outputs":[{"name":"context","type":"bytes","internalType":"bytes"},{"name":"validationData","type":"uint256","internalType":"uint256"}],"stateMutability":"nonpayable"},{"type":"function","name":"whitelist","inputs":[{"name":"","type":"address","internalType":"address"}],"outputs":[{"name":"","type":"bool","internalType":"bool"}],"stateMutability":"view"},{"type":"function","name":"withdrawFromEntryPoint","inputs":[{"name":"to","type":"address","internalType":"address payable"},{"name":"amount","type":"uint256","internalType":"uint256"}],"outputs":[],"stateMutability":"nonpayable"},{"type":"function","name":"withdrawTo","inputs":[{"name":"to","type":"address","internalType":"address payable"},{"name":"amount","type":"uint256","internalType":"uint256"}],"outputs":[],"stateMutability":"nonpayable"},{"type":"event","name":"Deposited","inputs":[{"name":"from","type":"address","indexed":true,"internalType":"address"},{"name":"amount","type":"uint256","indexed":false,"internalType":"uint256"}],"anonymous":false},{"type":"event","name":"WhitelistUpdated","inputs":[{"name":"account","type":"address","indexed":true,"internalType":"address"},{"name":"status","type":"bool","indexed":false,"internalType":"bool"}],"anonymous":false}],"bytecode":{"object":"0x60a060405234801561000f575f80fd5b50604051610ca8380380610ca883398101604081905261002e91610050565b5f80546001600160a01b031916331790556001600160a01b031660805261007d565b5f60208284031215610060575f80fd5b81516001600160a01b0381168114610076575f80fd5b9392505050565b608051610be96100bf5f395f81816101ec0152818161034c015281816103c6015281816104d401528181610721015281816107e6015261084e0152610be95ff3fe6080604052600436106100a8575f3560e01c8063a3d19d8c11610062578063a3d19d8c146101bc578063b0d691fe146101db578063c399ec881461020e578063c7d7630814610230578063d0e30db01461024f578063e43252d714610257575f80fd5b8063205c2878146100b357806352b7512c146100d45780637c627b211461010a5780638ab1d681146101295780638da5cb5b146101485780639b19251a1461017e575f80fd5b366100af57005b5f80fd5b3480156100be575f80fd5b506100d26100cd36600461097a565b610276565b005b3480156100df575f80fd5b506100f36100ee3660046109a4565b61033e565b6040516101019291906109f3565b60405180910390f35b348015610115575f80fd5b506100d2610124366004610a45565b6104c9565b348015610134575f80fd5b506100d2610143366004610ad4565b610593565b348015610153575f80fd5b505f54610166906001600160a01b031681565b6040516001600160a01b039091168152602001610101565b348015610189575f80fd5b506101ac610198366004610ad4565b60016020525f908152604090205460ff1681565b6040519015158152602001610101565b3480156101c7575f80fd5b506100d26101d6366004610af6565b610611565b3480156101e6575f80fd5b506101667f000000000000000000000000000000000000000000000000000000000000000081565b348015610219575f80fd5b5061022261070a565b604051908152602001610101565b34801561023b575f80fd5b506100d261024a36600461097a565b610797565b6100d2610839565b348015610262575f80fd5b506100d2610271366004610ad4565b6108e8565b5f546001600160a01b031633146102a85760405162461bcd60e51b815260040161029f90610b65565b60405180910390fd5b5f826001600160a01b0316826040515f6040518083038185875af1925050503d805f81146102f1576040519150601f19603f3d011682016040523d82523d5f602084013e6102f6565b606091505b50509050806103395760405162461bcd60e51b815260206004820152600f60248201526e1dda5d1a191c985dc819985a5b1959608a1b604482015260640161029f565b505050565b60605f336001600160a01b037f000000000000000000000000000000000000000000000000000000000000000016146103af5760405162461bcd60e51b81526020600482015260136024820152721b9bdd08199c9bdb48115b9d1c9e541bda5b9d606a1b604482015260640161029f565b6040516370a0823160e01b815230600482015283907f00000000000000000000000000000000000000000000000000000000000000006001600160a01b0316906370a0823190602401602060405180830381865afa158015610413573d5f803e3d5ffd5b505050506040513d601f19601f820116820180604052508101906104379190610b88565b10156104855760405162461bcd60e51b815260206004820152601f60248201527f7061796d61737465723a20696e73756666696369656e74206465706f73697400604482015260640161029f565b6104926020860186610ad4565b604080516001600160a01b039092166020830152810184905260600160408051601f19818403018152919052955f95509350505050565b336001600160a01b037f000000000000000000000000000000000000000000000000000000000000000016146105375760405162461bcd60e51b81526020600482015260136024820152721b9bdd08199c9bdb48115b9d1c9e541bda5b9d606a1b604482015260640161029f565b5f6105448486018661097a565b9150508083111561058b5760405162461bcd60e51b815260206004820152601160248201527019d85cc818dbdcdd08195e18d959591959607a1b604482015260640161029f565b505050505050565b5f546001600160a01b031633146105bc5760405162461bcd60e51b815260040161029f90610b65565b6001600160a01b0381165f818152600160209081526040808320805460ff19169055519182527ff93f9a76c1bf3444d22400a00cb9fe990e6abe9dbb333fda48859cfee864543d91015b60405180910390a250565b5f546001600160a01b0316331461063a5760405162461bcd60e51b815260040161029f90610b65565b5f5b81811015610339576001805f85858581811061065a5761065a610b9f565b905060200201602081019061066f9190610ad4565b6001600160a01b0316815260208101919091526040015f20805460ff19169115159190911790558282828181106106a8576106a8610b9f565b90506020020160208101906106bd9190610ad4565b6001600160a01b03167ff93f9a76c1bf3444d22400a00cb9fe990e6abe9dbb333fda48859cfee864543d60016040516106fa911515815260200190565b60405180910390a260010161063c565b6040516370a0823160e01b81523060048201525f907f00000000000000000000000000000000000000000000000000000000000000006001600160a01b0316906370a0823190602401602060405180830381865afa15801561076e573d5f803e3d5ffd5b505050506040513d601f19601f820116820180604052508101906107929190610b88565b905090565b5f546001600160a01b031633146107c05760405162461bcd60e51b815260040161029f90610b65565b60405163040b850f60e31b81526001600160a01b038381166004830152602482018390527f0000000000000000000000000000000000000000000000000000000000000000169063205c2878906044015f604051808303815f87803b158015610827575f80fd5b505af115801561058b573d5f803e3d5ffd5b60405163b760faf960e01b81523060048201527f00000000000000000000000000000000000000000000000000000000000000006001600160a01b03169063b760faf99034906024015f604051808303818588803b158015610899575f80fd5b505af11580156108ab573d5f803e3d5ffd5b50506040513481523393507f2da466a7b24304f47e87fa2e1e5a81b9831ce54fec19055ce277ca2f39ba42c49250602001905060405180910390a2565b5f546001600160a01b031633146109115760405162461bcd60e51b815260040161029f90610b65565b6001600160a01b0381165f81815260016020818152604092839020805460ff19168317905591519081527ff93f9a76c1bf3444d22400a00cb9fe990e6abe9dbb333fda48859cfee864543d9101610606565b6001600160a01b0381168114610977575f80fd5b50565b5f806040838503121561098b575f80fd5b823561099681610963565b946020939093013593505050565b5f805f606084860312156109b6575f80fd5b833567ffffffffffffffff8111156109cc575f80fd5b840161012081870312156109de575f80fd5b95602085013595506040909401359392505050565b604081525f83518060408401525f5b81811015610a1f5760208187018101516060868401015201610a02565b505f606082850101526060601f19601f8301168401019150508260208301529392505050565b5f805f805f60808688031215610a59575f80fd5b853560038110610a67575f80fd5b9450602086013567ffffffffffffffff80821115610a83575f80fd5b818801915088601f830112610a96575f80fd5b813581811115610aa4575f80fd5b896020828501011115610ab5575f80fd5b9699602092909201985095966040810135965060600135945092505050565b5f60208284031215610ae4575f80fd5b8135610aef81610963565b9392505050565b5f8060208385031215610b07575f80fd5b823567ffffffffffffffff80821115610b1e575f80fd5b818501915085601f830112610b31575f80fd5b813581811115610b3f575f80fd5b8660208260051b8501011115610b53575f80fd5b60209290920196919550909350505050565b6020808252600990820152683737ba1037bbb732b960b91b604082015260600190565b5f60208284031215610b98575f80fd5b5051919050565b634e487b7160e01b5f52603260045260245ffdfea26469706673582212209f9b173c5043f28c2a5fc4cbd97aa21b3633a37b04458011555664dc538a1f1364736f6c63430008180033","linkReferences":{}},"methodIdentifiers":{"addBatchToWhitelist(address[])":"a3d19d8c","addToWhitelist(address)":"e43252d7","deposit()":"d0e30db0","entryPoint()":"b0d691fe","getDeposit()":"c399ec88","owner()":"8da5cb5b","postOp(uint8,bytes,uint256,uint256)":"7c627b21","removeFromWhitelist(address)":"8ab1d681","validatePaymasterUserOp((address,uint256,bytes,bytes,bytes32,uint256,bytes32,bytes,bytes),bytes32,uint256)":"52b7512c","whitelist(address)":"9b19251a","withdrawFromEntryPoint(address,uint256)":"c7d76308","withdrawTo(address,uint256)":"205c2878"},"id":36}