{"abi":[{"type":"function","name":"RECOVERY_DELAY","inputs":[],"outputs":[{"name":"","type":"uint256","internalType":"uint256"}],"stateMutability":"view"},{"type":"function","name":"approveRecovery","inputs":[{"name":"account","type":"address","internalType":"address"}],"outputs":[],"stateMutability":"nonpayable"},{"type":"function","name":"cancelRecovery","inputs":[],"outputs":[],"stateMutability":"nonpayable"},{"type":"function","name":"configs","inputs":[{"name":"","type":"address","internalType":"address"}],"outputs":[{"name":"threshold","type":"uint256","internalType":"uint256"},{"name":"configured","type":"bool","internalType":"bool"}],"stateMutability":"view"},{"type":"function","name":"configureGuardians","inputs":[{"name":"guardians","type":"address[]","internalType":"address[]"},{"name":"threshold","type":"uint256","internalType":"uint256"}],"outputs":[],"stateMutability":"nonpayable"},{"type":"function","name":"executeRecovery","inputs":[{"name":"account","type":"address","internalType":"address"}],"outputs":[],"stateMutability":"nonpayable"},{"type":"function","name":"getGuardians","inputs":[{"name":"account","type":"address","internalType":"address"}],"outputs":[{"name":"","type":"address[]","internalType":"address[]"}],"stateMutability":"view"},{"type":"function","name":"getRecoveryStatus","inputs":[{"name":"account","type":"address","internalType":"address"}],"outputs":[{"name":"newOwner","type":"address","internalType":"address"},{"name":"approvalCount","type":"uint256","internalType":"uint256"},{"name":"threshold","type":"uint256","internalType":"uint256"},{"name":"executeAfter","type":"uint256","internalType":"uint256"},{"name":"canExecute","type":"bool","internalType":"bool"}],"stateMutability":"view"},{"type":"function","name":"initiateRecovery","inputs":[{"name":"account","type":"address","internalType":"address"},{"name":"newOwner","type":"address","internalType":"address"}],"outputs":[],"stateMutability":"nonpayable"},{"type":"function","name":"isGuardian","inputs":[{"name":"account","type":"address","internalType":"address"},{"name":"addr","type":"address","internalType":"address"}],"outputs":[{"name":"","type":"bool","internalType":"bool"}],"stateMutability":"view"},{"type":"function","name":"recoveryNonce","inputs":[{"name":"","type":"address","internalType":"address"}],"outputs":[{"name":"","type":"uint256","internalType":"uint256"}],"stateMutability":"view"},{"type":"function","name":"requests","inputs":[{"name":"","type":"address","internalType":"address"},{"name":"","type":"uint256","internalType":"uint256"}],"outputs":[{"name":"newOwner","type":"address","internalType":"address"},{"name":"approvalCount","type":"uint256","internalType":"uint256"},{"name":"executeAfter","type":"uint256","internalType":"uint256"},{"name":"executed","type":"bool","internalType":"bool"}],"stateMutability":"view"},{"type":"event","name":"GuardiansConfigured","inputs":[{"name":"account","type":"address","indexed":true,"internalType":"address"},{"name":"threshold","type":"uint256","indexed":false,"internalType":"uint256"},{"name":"guardianCount","type":"uint256","indexed":false,"internalType":"uint256"}],"anonymous":false},{"type":"event","name":"RecoveryApproved","inputs":[{"name":"account","type":"address","indexed":true,"internalType":"address"},{"name":"nonce","type":"uint256","indexed":true,"internalType":"uint256"},{"name":"guardian","type":"address","indexed":true,"internalType":"address"}],"anonymous":false},{"type":"event","name":"RecoveryCancelled","inputs":[{"name":"account","type":"address","indexed":true,"internalType":"address"},{"name":"nonce","type":"uint256","indexed":true,"internalType":"uint256"}],"anonymous":false},{"type":"event","name":"RecoveryExecuted","inputs":[{"name":"account","type":"address","indexed":true,"internalType":"address"},{"name":"nonce","type":"uint256","indexed":true,"internalType":"uint256"},{"name":"newOwner","type":"address","indexed":false,"internalType":"address"}],"anonymous":false},{"type":"event","name":"RecoveryInitiated","inputs":[{"name":"account","type":"address","indexed":true,"internalType":"address"},{"name":"nonce","type":"uint256","indexed":true,"internalType":"uint256"},{"name":"newOwner","type":"address","indexed":false,"internalType":"address"},{"name":"executeAfter","type":"uint256","indexed":false,"internalType":"uint256"}],"anonymous":false}],"bytecode":{"object":"0x608060405234801561000f575f80fd5b506110098061001d5f395ff3fe608060405234801561000f575f80fd5b50600436106100b1575f3560e01c80639ecebe2a1161006e5780639ecebe2a14610168578063a52d92cf146101e0578063cbc3b3c2146101f3578063d4ee973414610206578063f18858ab14610229578063fce8987814610249575f80fd5b806307c73d34146100b55780630ba234d614610101578063244026af1461010b5780633bc2c4a71461011e57806347b456521461013157806349bcad0a14610149575b5f80fd5b6100c86100c3366004610df0565b61028a565b604080516001600160a01b03909616865260208601949094529284019190915260608301521515608082015260a0015b60405180910390f35b61010961031e565b005b610109610119366004610e10565b6103de565b61010961012c366004610df0565b610668565b61013b6202a30081565b6040519081526020016100f8565b61013b610157366004610df0565b60026020525f908152604090205481565b6101b4610176366004610e84565b600160208181525f9384526040808520909152918352912080549181015460028201546003909201546001600160a01b039093169290919060ff1684565b604080516001600160a01b039095168552602085019390935291830152151560608201526080016100f8565b6101096101ee366004610eac565b6107fa565b610109610201366004610df0565b610a9c565b610219610214366004610eac565b610c77565b60405190151581526020016100f8565b61023c610237366004610df0565b610cef565b6040516100f89190610edd565b610275610257366004610df0565b5f602081905290815260409020600181015460029091015460ff1682565b604080519283529015156020830152016100f8565b6001600160a01b038082165f81815260026020818152604080842054600180845282862082875284528286209686529285905290842085548684015493820154948701549716969295939492939087158015906102ec5750600382015460ff16155b801561030057508060010154826001015410155b8015610310575081600201544210155b935050505091939590929450565b335f908152600260209081526040808320546001835281842081855290925290912080546001600160a01b03166103705760405162461bcd60e51b815260040161036790610f29565b60405180910390fd5b600381015460ff16156103955760405162461bcd60e51b815260040161036790610f56565b6103a0826001610f94565b335f8181526002602052604080822093909355915184927f500ec1d4b692d3c788bfd78a898de379cfd93ab8177575efc7593f87bd051a0791a35050565b808210156104235760405162461bcd60e51b81526020600482015260126024820152710e8d0e4cae6d0ded8c840e8dede40d0d2ced60731b6044820152606401610367565b5f811161046a5760405162461bcd60e51b815260206004820152601560248201527407468726573686f6c64206d757374206265203e203605c1b6044820152606401610367565b600a8211156104b05760405162461bcd60e51b8152602060048201526012602482015271746f6f206d616e7920677561726469616e7360701b6044820152606401610367565b5f5b828110156105f5575f8484838181106104cd576104cd610fa7565b90506020020160208101906104e29190610df0565b6001600160a01b03160361052b5760405162461bcd60e51b815260206004820152601060248201526f34b73b30b634b21033bab0b93234b0b760811b6044820152606401610367565b5f610537826001610f94565b90505b838110156105ec5784848281811061055457610554610fa7565b90506020020160208101906105699190610df0565b6001600160a01b031685858481811061058457610584610fa7565b90506020020160208101906105999190610df0565b6001600160a01b0316036105e45760405162461bcd60e51b8152602060048201526012602482015271323ab83634b1b0ba329033bab0b93234b0b760711b6044820152606401610367565b60010161053a565b506001016104b2565b50335f90815260208190526040902061060f818585610d60565b50600181810183905560028201805460ff19169091179055604080518381526020810185905233917f5f15d6a9986d1be5a92d08f36e8184bab39869cbed2c91e385fd87cd02d423a9910160405180910390a250505050565b6001600160a01b038082165f8181526002602090815260408083205460018352818420818552835281842094845291839052909120825491939091166106c05760405162461bcd60e51b815260040161036790610f29565b600382015460ff16156106e55760405162461bcd60e51b815260040161036790610f56565b8060010154826001015410156107345760405162461bcd60e51b81526020600482015260146024820152736e6f7420656e6f75676820617070726f76616c7360601b6044820152606401610367565b81600201544210156107805760405162461bcd60e51b81526020600482015260156024820152741d1a5b59481b1bd8dac81b9bdd08195e1c1a5c9959605a1b6044820152606401610367565b60038201805460ff1916600190811790915561079d908490610f94565b6001600160a01b038581165f81815260026020908152604091829020949094558554905192168252859290917fbe77f56d616961fa0e6e14237fcf74c24b6049a75c3afd7f3d75314bc2853001910160405180910390a350505050565b6001600160a01b0382165f9081526020819052604081208391805b825481101561085e578254339084908390811061083457610834610fa7565b5f918252602090912001546001600160a01b031603610856576001915061085e565b600101610815565b508061089d5760405162461bcd60e51b815260206004820152600e60248201526d3737ba10309033bab0b93234b0b760911b6044820152606401610367565b6001600160a01b0385165f9081526020819052604090206002015460ff166108f85760405162461bcd60e51b815260206004820152600e60248201526d1b9bdd0818dbdb999a59dd5c995960921b6044820152606401610367565b6001600160a01b0384166109425760405162461bcd60e51b815260206004820152601160248201527034b73b30b634b2103732bb9037bbb732b960791b6044820152606401610367565b6001600160a01b038086165f908152600260209081526040808320546001835281842081855290925290912080549192909116156109c25760405162461bcd60e51b815260206004820152601860248201527f7265636f7665727920616c72656164792070656e64696e6700000000000000006044820152606401610367565b80546001600160a01b0319166001600160a01b0387161781556001808201556109ee6202a30042610f94565b60028201908155335f908152600483016020908152604091829020805460ff19166001179055915481516001600160a01b038a811682529381019190915284928a16917ffa03f1e7b428ae8edf365e2ab6b1eb63e689a1e78e3528e55887e49f2019f175910160405180910390a3604051339083906001600160a01b038a16907f6d44ab60e47b853db41118378bd8785beb3751528aa51cd3ffc8c196fcb89300905f90a450505050505050565b6001600160a01b0381165f9081526020819052604081208291805b8254811015610b005782543390849083908110610ad657610ad6610fa7565b5f918252602090912001546001600160a01b031603610af85760019150610b00565b600101610ab7565b5080610b3f5760405162461bcd60e51b815260206004820152600e60248201526d3737ba10309033bab0b93234b0b760911b6044820152606401610367565b6001600160a01b038085165f908152600260209081526040808320546001835281842081855290925290912080549192909116610b8e5760405162461bcd60e51b815260040161036790610f29565b600381015460ff1615610bb35760405162461bcd60e51b815260040161036790610f56565b335f90815260048201602052604090205460ff1615610c075760405162461bcd60e51b815260206004820152601060248201526f185b1c9958591e48185c1c1c9bdd995960821b6044820152606401610367565b335f9081526004820160205260408120805460ff191660019081179091558201805491610c3383610fbb565b9091555050604051339083906001600160a01b038916907f6d44ab60e47b853db41118378bd8785beb3751528aa51cd3ffc8c196fcb89300905f90a4505050505050565b6001600160a01b0382165f908152602081905260408120815b8154811015610ce357836001600160a01b0316825f018281548110610cb757610cb7610fa7565b5f918252602090912001546001600160a01b031603610cdb57600192505050610ce9565b600101610c90565b505f9150505b92915050565b6001600160a01b0381165f9081526020818152604091829020805483518184028101840190945280845260609392830182828015610d5457602002820191905f5260205f20905b81546001600160a01b03168152600190910190602001808311610d36575b50505050509050919050565b828054828255905f5260205f20908101928215610db1579160200282015b82811115610db15781546001600160a01b0319166001600160a01b03843516178255602090920191600190910190610d7e565b50610dbd929150610dc1565b5090565b5b80821115610dbd575f8155600101610dc2565b80356001600160a01b0381168114610deb575f80fd5b919050565b5f60208284031215610e00575f80fd5b610e0982610dd5565b9392505050565b5f805f60408486031215610e22575f80fd5b833567ffffffffffffffff80821115610e39575f80fd5b818601915086601f830112610e4c575f80fd5b813581811115610e5a575f80fd5b8760208260051b8501011115610e6e575f80fd5b6020928301989097509590910135949350505050565b5f8060408385031215610e95575f80fd5b610e9e83610dd5565b946020939093013593505050565b5f8060408385031215610ebd575f80fd5b610ec683610dd5565b9150610ed460208401610dd5565b90509250929050565b602080825282518282018190525f9190848201906040850190845b81811015610f1d5783516001600160a01b031683529284019291840191600101610ef8565b50909695505050505050565b6020808252601390820152726e6f207265636f766572792070656e64696e6760681b604082015260600190565b60208082526010908201526f185b1c9958591e48195e1958dd5d195960821b604082015260600190565b634e487b7160e01b5f52601160045260245ffd5b80820180821115610ce957610ce9610f80565b634e487b7160e01b5f52603260045260245ffd5b5f60018201610fcc57610fcc610f80565b506001019056fea2646970667358221220ce1e8b19e581033d6ad8f78e1561fa22fcf28bca6aba878e3cd1eb708e00cd3a64736f6c63430008180033","linkReferences":{}},"methodIdentifiers":{"RECOVERY_DELAY()":"47b45652","approveRecovery(address)":"cbc3b3c2","cancelRecovery()":"0ba234d6","configs(address)":"fce89878","configureGuardians(address[],uint256)":"244026af","executeRecovery(address)":"3bc2c4a7","getGuardians(address)":"f18858ab","getRecoveryStatus(address)":"07c73d34","initiateRecovery(address,address)":"a52d92cf","isGuardian(address,address)":"d4ee9734","recoveryNonce(address)":"49bcad0a","requests(address,uint256)":"9ecebe2a"},"id":35}