{"abi":[{"type":"function","name":"accountSessionKeys","inputs":[{"name":"","type":"address","internalType":"address"},{"name":"","type":"uint256","internalType":"uint256"}],"outputs":[{"name":"","type":"bytes32","internalType":"bytes32"}],"stateMutability":"view"},{"type":"function","name":"createSessionKey","inputs":[{"name":"key","type":"address","internalType":"address"},{"name":"targets","type":"address[]","internalType":"address[]"},{"name":"valueLimit","type":"uint256","internalType":"uint256"},{"name":"validAfter","type":"uint48","internalType":"uint48"},{"name":"validUntil","type":"uint48","internalType":"uint48"}],"outputs":[{"name":"keyHash","type":"bytes32","internalType":"bytes32"}],"stateMutability":"nonpayable"},{"type":"function","name":"getAccountSessionKeyCount","inputs":[{"name":"account","type":"address","internalType":"address"}],"outputs":[{"name":"","type":"uint256","internalType":"uint256"}],"stateMutability":"view"},{"type":"function","name":"getSessionKey","inputs":[{"name":"account","type":"address","internalType":"address"},{"name":"keyHash","type":"bytes32","internalType":"bytes32"}],"outputs":[{"name":"key","type":"address","internalType":"address"},{"name":"valueLimit","type":"uint256","internalType":"uint256"},{"name":"validAfter","type":"uint48","internalType":"uint48"},{"name":"validUntil","type":"uint48","internalType":"uint48"},{"name":"active","type":"bool","internalType":"bool"}],"stateMutability":"view"},{"type":"function","name":"getSessionKeyTargets","inputs":[{"name":"account","type":"address","internalType":"address"},{"name":"keyHash","type":"bytes32","internalType":"bytes32"}],"outputs":[{"name":"","type":"address[]","internalType":"address[]"}],"stateMutability":"view"},{"type":"function","name":"revokeSessionKey","inputs":[{"name":"keyHash","type":"bytes32","internalType":"bytes32"}],"outputs":[],"stateMutability":"nonpayable"},{"type":"function","name":"sessionKeys","inputs":[{"name":"","type":"address","internalType":"address"},{"name":"","type":"bytes32","internalType":"bytes32"}],"outputs":[{"name":"key","type":"address","internalType":"address"},{"name":"valueLimit","type":"uint256","internalType":"uint256"},{"name":"validAfter","type":"uint48","internalType":"uint48"},{"name":"validUntil","type":"uint48","internalType":"uint48"},{"name":"active","type":"bool","internalType":"bool"}],"stateMutability":"view"},{"type":"function","name":"validateSessionKey","inputs":[{"name":"account","type":"address","internalType":"address"},{"name":"signer","type":"address","internalType":"address"},{"name":"target","type":"address","internalType":"address"},{"name":"value","type":"uint256","internalType":"uint256"}],"outputs":[{"name":"valid","type":"bool","internalType":"bool"}],"stateMutability":"view"},{"type":"event","name":"SessionKeyCreated","inputs":[{"name":"account","type":"address","indexed":true,"internalType":"address"},{"name":"key","type":"address","indexed":true,"internalType":"address"},{"name":"keyHash","type":"bytes32","indexed":true,"internalType":"bytes32"},{"name":"validUntil","type":"uint48","indexed":false,"internalType":"uint48"}],"anonymous":false},{"type":"event","name":"SessionKeyRevoked","inputs":[{"name":"account","type":"address","indexed":true,"internalType":"address"},{"name":"keyHash","type":"bytes32","indexed":true,"internalType":"bytes32"}],"anonymous":false}],"bytecode":{"object":"0x608060405234801561000f575f80fd5b506109be8061001d5f395ff3fe608060405234801561000f575f80fd5b5060043610610084575f3560e01c806382b751fc1161005857806382b751fc146101935780639a56f4fb146101bb578063b1af1d62146101d0578063f444bd7f146101e3575f80fd5b80629db833146100885780630433b7bd146100b05780631ee2e26b146100d05780638287ccc0146100f1575b5f80fd5b61009b6100963660046107c4565b610243565b60405190151581526020015b60405180910390f35b6100c36100be36600461080c565b610392565b6040516100a79190610834565b6100e36100de366004610895565b61040f565b6040519081526020016100a7565b6101546100ff36600461080c565b6001600160a01b039182165f908152602081815260408083209383529290522080546002820154600390920154921692909165ffffffffffff80821692600160301b830490911691600160601b900460ff1690565b604080516001600160a01b039096168652602086019490945265ffffffffffff928316938501939093521660608301521515608082015260a0016100a7565b6100e36101a136600461093d565b6001600160a01b03165f9081526001602052604090205490565b6101ce6101c936600461095d565b610667565b005b6100e36101de36600461080c565b610709565b6101546101f136600461080c565b5f6020818152928152604080822090935290815220805460028201546003909201546001600160a01b03909116919065ffffffffffff80821691600160301b810490911690600160601b900460ff1685565b6040516001600160601b0319606086811b8216602084015285901b1660348201525f90819060480160408051808303601f1901815291815281516020928301206001600160a01b0389165f9081528084528281208282529093529120600381015491925090600160601b900460ff166102c0575f9250505061038a565b600381015465ffffffffffff164210156102de575f9250505061038a565b6003810154600160301b900465ffffffffffff16421115610303575f9250505061038a565b8060020154841115610319575f9250505061038a565b5f805b600183015481101561037157866001600160a01b031683600101828154811061034757610347610974565b5f918252602090912001546001600160a01b0316036103695760019150610371565b60010161031c565b5080610382575f935050505061038a565b600193505050505b949350505050565b6001600160a01b0382165f9081526020818152604080832084845282529182902060010180548351818402810184019094528084526060939283018282801561040257602002820191905f5260205f20905b81546001600160a01b031681526001909101906020018083116103e4575b5050505050905092915050565b5f6001600160a01b0387166104595760405162461bcd60e51b815260206004820152600b60248201526a696e76616c6964206b657960a81b60448201526064015b60405180910390fd5b428265ffffffffffff16116104a25760405162461bcd60e51b815260206004820152600f60248201526e185b1c9958591e48195e1c1a5c9959608a1b6044820152606401610450565b8265ffffffffffff168265ffffffffffff16116104f65760405162461bcd60e51b8152602060048201526012602482015271696e76616c69642074696d652072616e676560701b6044820152606401610450565b846105305760405162461bcd60e51b815260206004820152600a6024820152696e6f207461726765747360b01b6044820152606401610450565b6040516001600160601b031933606090811b8216602084015289901b16603482015260480160408051808303601f190181529181528151602092830120335f908152808452828120828252909352912080546001600160a01b0319166001600160a01b038a161781559091506105aa600182018888610734565b506002810185905560038101805460ff60601b1965ffffffffffff868116600160301b026001600160601b0319909316908816179190911716600160601b179055335f8181526001602081815260408084208054938401815584529220018490555183916001600160a01b038b16917f8d67283897ce274d3f7d4620b3d269b760d121730e1cb34c359233e8dd5b5a0f9061065490889065ffffffffffff91909116815260200190565b60405180910390a4509695505050505050565b335f9081526020818152604080832084845290915290206003810154600160601b900460ff166106ca5760405162461bcd60e51b815260206004820152600e60248201526d6b6579206e6f742061637469766560901b6044820152606401610450565b60038101805460ff60601b19169055604051829033907fe334efb55400a03a30f4eb9eb593e6a17a62f03d00926a8ed4be8dc6c4838c83905f90a35050565b6001602052815f5260405f208181548110610722575f80fd5b905f5260205f20015f91509150505481565b828054828255905f5260205f20908101928215610785579160200282015b828111156107855781546001600160a01b0319166001600160a01b03843516178255602090920191600190910190610752565b50610791929150610795565b5090565b5b80821115610791575f8155600101610796565b80356001600160a01b03811681146107bf575f80fd5b919050565b5f805f80608085870312156107d7575f80fd5b6107e0856107a9565b93506107ee602086016107a9565b92506107fc604086016107a9565b9396929550929360600135925050565b5f806040838503121561081d575f80fd5b610826836107a9565b946020939093013593505050565b602080825282518282018190525f9190848201906040850190845b818110156108745783516001600160a01b03168352928401929184019160010161084f565b50909695505050505050565b803565ffffffffffff811681146107bf575f80fd5b5f805f805f8060a087890312156108aa575f80fd5b6108b3876107a9565b9550602087013567ffffffffffffffff808211156108cf575f80fd5b818901915089601f8301126108e2575f80fd5b8135818111156108f0575f80fd5b8a60208260051b8501011115610904575f80fd5b6020830197508096505050506040870135925061092360608801610880565b915061093160808801610880565b90509295509295509295565b5f6020828403121561094d575f80fd5b610956826107a9565b9392505050565b5f6020828403121561096d575f80fd5b5035919050565b634e487b7160e01b5f52603260045260245ffdfea26469706673582212208d951974a9d34d1fae7a57e7c76c2c0905439e7f1739b90aa706bf79836970f564736f6c63430008180033","linkReferences":{}},"methodIdentifiers":{"accountSessionKeys(address,uint256)":"b1af1d62","createSessionKey(address,address[],uint256,uint48,uint48)":"1ee2e26b","getAccountSessionKeyCount(address)":"82b751fc","getSessionKey(address,bytes32)":"8287ccc0","getSessionKeyTargets(address,bytes32)":"0433b7bd","revokeSessionKey(bytes32)":"9a56f4fb","sessionKeys(address,bytes32)":"f444bd7f","validateSessionKey(address,address,address,uint256)":"009db833"},"id":32}