{"abi":[{"type":"constructor","inputs":[{"name":"_entryPoint","type":"address","internalType":"address"}],"stateMutability":"nonpayable"},{"type":"function","name":"accountImplementation","inputs":[],"outputs":[{"name":"","type":"address","internalType":"address"}],"stateMutability":"view"},{"type":"function","name":"createAccount","inputs":[{"name":"owner","type":"address","internalType":"address"},{"name":"salt","type":"uint256","internalType":"uint256"}],"outputs":[{"name":"","type":"address","internalType":"address"}],"stateMutability":"nonpayable"},{"type":"function","name":"entryPoint","inputs":[],"outputs":[{"name":"","type":"address","internalType":"address"}],"stateMutability":"view"},{"type":"function","name":"getAddress","inputs":[{"name":"owner","type":"address","internalType":"address"},{"name":"salt","type":"uint256","internalType":"uint256"}],"outputs":[{"name":"","type":"address","internalType":"address"}],"stateMutability":"view"},{"type":"event","name":"AccountCreated","inputs":[{"name":"account","type":"address","indexed":true,"internalType":"address"},{"name":"owner","type":"address","indexed":true,"internalType":"address"},{"name":"salt","type":"uint256","indexed":false,"internalType":"uint256"}],"anonymous":false}],"bytecode":{"object":"0x60c060405234801561000f575f80fd5b506040516111e53803806111e583398101604081905261002e91610092565b6001600160a01b03811660a052604051819061004990610085565b6001600160a01b039091168152602001604051809103905ff080158015610072573d5f803e3d5ffd5b506001600160a01b0316608052506100bf565b610d1f806104c683390190565b5f602082840312156100a2575f80fd5b81516001600160a01b03811681146100b8575f80fd5b9392505050565b60805160a0516103e16100e55f395f60bc01525f81816053015261032101526103e15ff3fe608060405234801561000f575f80fd5b506004361061004a575f3560e01c806311464fbe1461004e5780635fbfb9cf146100915780638cb84e18146100a4578063b0d691fe146100b7575b5f80fd5b6100757f000000000000000000000000000000000000000000000000000000000000000081565b6040516001600160a01b03909116815260200160405180910390f35b61007561009f366004610376565b6100de565b6100756100b2366004610376565b610250565b6100757f000000000000000000000000000000000000000000000000000000000000000081565b5f806100ea8484610250565b90506001600160a01b0381163b1561010357905061024a565b5f61010c6102f5565b6040516001600160601b0319606088901b166020820152603481018690529091505f906054016040516020818303038152906040528051906020012090505f818351602085015ff590506001600160a01b0381166101a15760405162461bcd60e51b815260206004820152600e60248201526d18dc99585d194c8819985a5b195960921b604482015260640160405180910390fd5b60405163189acdbd60e31b81526001600160a01b03888116600483015282169063c4d66de8906024015f604051808303815f87803b1580156101e1575f80fd5b505af11580156101f3573d5f803e3d5ffd5b50505050866001600160a01b0316816001600160a01b03167f33310a89c32d8cc00057ad6ef6274d2f8fe22389a992cf89983e09fc84f6cfff8860405161023c91815260200190565b60405180910390a393505050505b92915050565b6040516001600160601b0319606084901b166020820152603481018290525f9081906054016040516020818303038152906040528051906020012090505f6102966102f5565b8051602091820120604080516001600160f81b0319818501523060601b6001600160601b031916602182015260358101959095526055808601929092528051808603909201825260759094019093528251920191909120949350505050565b60408051733d602d80600a3d3981f3363d3d373d3d3d363d7360601b60208201526001600160601b03197f000000000000000000000000000000000000000000000000000000000000000060601b1660348201526e5af43d82803e903d91602b57fd5bf360881b604882015281516037818303018152605790910190915290565b5f8060408385031215610387575f80fd5b82356001600160a01b038116811461039d575f80fd5b94602093909301359350505056fea2646970667358221220b193695bba04a6e287979a12cd4c7f7d5ffc8a627e41439a07f982ea541a4d1b64736f6c6343000818003360a060405234801561000f575f80fd5b50604051610d1f380380610d1f83398101604081905261002e91610051565b6001600160a01b03166080525f805460ff60a01b1916600160a01b17905561007e565b5f60208284031215610061575f80fd5b81516001600160a01b0381168114610077575f80fd5b9392505050565b608051610c676100b85f395f818160e9015281816101a601528181610418015281816105520152818161064701526107c40152610c675ff3fe608060405260043610610071575f3560e01c8063b61d27f61161004c578063b61d27f61461010b578063bc8e2a8e1461012a578063c399ec8814610157578063c4d66de814610169575f80fd5b806347e1da2a1461007c5780638da5cb5b1461009d578063b0d691fe146100d8575f80fd5b3661007857005b5f80fd5b348015610087575f80fd5b5061009b610096366004610976565b610188565b005b3480156100a8575f80fd5b505f546100bb906001600160a01b031681565b6040516001600160a01b0390911681526020015b60405180910390f35b3480156100e3575f80fd5b506100bb7f000000000000000000000000000000000000000000000000000000000000000081565b348015610116575f80fd5b5061009b610125366004610a62565b6103fa565b348015610135575f80fd5b50610149610144366004610ab8565b610546565b6040519081526020016100cf565b348015610162575f80fd5b5047610149565b348015610174575f80fd5b5061009b610183366004610b05565b610705565b5f546001600160a01b03163314806101c85750336001600160a01b037f000000000000000000000000000000000000000000000000000000000000000016145b61020a5760405162461bcd60e51b815260206004820152600e60248201526d1b9bdd08185d5d1a1bdc9a5e995960921b60448201526064015b60405180910390fd5b848314801561021857508281145b6102565760405162461bcd60e51b815260206004820152600f60248201526e0d8cadccee8d040dad2e6dac2e8c6d608b1b6044820152606401610201565b5f5b858110156103f1575f8088888481811061027457610274610b25565b90506020020160208101906102899190610b05565b6001600160a01b03168787858181106102a4576102a4610b25565b905060200201358686868181106102bd576102bd610b25565b90506020028101906102cf9190610b39565b6040516102dd929190610b7c565b5f6040518083038185875af1925050503d805f8114610317576040519150601f19603f3d011682016040523d82523d5f602084013e61031c565b606091505b50915091508181906103415760405162461bcd60e51b81526004016102019190610b8b565b5088888481811061035457610354610b25565b90506020020160208101906103699190610b05565b6001600160a01b03167fcaf938de11c367272220bfd1d2baa99ca46665e7bc4d85f00adb51b90fe1fa9f8888868181106103a5576103a5610b25565b905060200201358787878181106103be576103be610b25565b90506020028101906103d09190610b39565b6040516103df93929190610bd7565b60405180910390a25050600101610258565b50505050505050565b5f546001600160a01b031633148061043a5750336001600160a01b037f000000000000000000000000000000000000000000000000000000000000000016145b6104775760405162461bcd60e51b815260206004820152600e60248201526d1b9bdd08185d5d1a1bdc9a5e995960921b6044820152606401610201565b5f80856001600160a01b0316858585604051610494929190610b7c565b5f6040518083038185875af1925050503d805f81146104ce576040519150601f19603f3d011682016040523d82523d5f602084013e6104d3565b606091505b50915091508181906104f85760405162461bcd60e51b81526004016102019190610b8b565b50856001600160a01b03167fcaf938de11c367272220bfd1d2baa99ca46665e7bc4d85f00adb51b90fe1fa9f86868660405161053693929190610bd7565b60405180910390a2505050505050565b5f336001600160a01b037f000000000000000000000000000000000000000000000000000000000000000016146105b55760405162461bcd60e51b81526020600482015260136024820152721b9bdd08199c9bdb48115b9d1c9e541bda5b9d606a1b6044820152606401610201565b5f6105c0868661080e565b6040517f19457468657265756d205369676e6564204d6573736167653a0a3332000000006020820152603c81018690529091505f90605c016040516020818303038152906040528051906020012090505f61061b828461084f565b5f549091506001600160a01b0380831691161461063e57600193505050506106fd565b84156106f6575f7f00000000000000000000000000000000000000000000000000000000000000006001600160a01b0316866040515f6040518083038185875af1925050503d805f81146106ad576040519150601f19603f3d011682016040523d82523d5f602084013e6106b2565b606091505b50509050806106f45760405162461bcd60e51b815260206004820152600e60248201526d1c1c99599d5b990819985a5b195960921b6044820152606401610201565b505b5f93505050505b949350505050565b5f54600160a01b900460ff16156107545760405162461bcd60e51b8152602060048201526013602482015272185b1c9958591e481a5b9a5d1a585b1a5e9959606a1b6044820152606401610201565b6001600160a01b03811661079a5760405162461bcd60e51b815260206004820152600d60248201526c34b73b30b634b21037bbb732b960991b6044820152606401610201565b5f80546001600160a81b0319166001600160a01b03808416918217600160a01b17835560405191927f0000000000000000000000000000000000000000000000000000000000000000909116917f47e55c76e7a6f1fd8996a1da8008c1ea29699cca35e7bcd057f2dec313b6e5de9190a350565b606082828080601f0160208091040260200160405190810160405280939291908181526020018383808284375f920191909152509293505050505b92915050565b5f81516041146108a15760405162461bcd60e51b815260206004820152601860248201527f696e76616c6964207369676e6174757265206c656e67746800000000000000006044820152606401610201565b6020820151604083015160608401515f1a601b8110156108c9576108c6601b82610c0c565b90505b604080515f81526020810180835288905260ff831691810191909152606081018490526080810183905260019060a0016020604051602081039080840390855afa158015610919573d5f803e3d5ffd5b5050604051601f190151979650505050505050565b5f8083601f84011261093e575f80fd5b50813567ffffffffffffffff811115610955575f80fd5b6020830191508360208260051b850101111561096f575f80fd5b9250929050565b5f805f805f806060878903121561098b575f80fd5b863567ffffffffffffffff808211156109a2575f80fd5b6109ae8a838b0161092e565b909850965060208901359150808211156109c6575f80fd5b6109d28a838b0161092e565b909650945060408901359150808211156109ea575f80fd5b506109f789828a0161092e565b979a9699509497509295939492505050565b80356001600160a01b0381168114610a1f575f80fd5b919050565b5f8083601f840112610a34575f80fd5b50813567ffffffffffffffff811115610a4b575f80fd5b60208301915083602082850101111561096f575f80fd5b5f805f8060608587031215610a75575f80fd5b610a7e85610a09565b935060208501359250604085013567ffffffffffffffff811115610aa0575f80fd5b610aac87828801610a24565b95989497509550505050565b5f805f8060608587031215610acb575f80fd5b843567ffffffffffffffff811115610ae1575f80fd5b610aed87828801610a24565b90989097506020870135966040013595509350505050565b5f60208284031215610b15575f80fd5b610b1e82610a09565b9392505050565b634e487b7160e01b5f52603260045260245ffd5b5f808335601e19843603018112610b4e575f80fd5b83018035915067ffffffffffffffff821115610b68575f80fd5b60200191503681900382131561096f575f80fd5b818382375f9101908152919050565b5f602080835283518060208501525f5b81811015610bb757858101830151858201604001528201610b9b565b505f604082860101526040601f19601f8301168501019250505092915050565b83815260406020820152816040820152818360608301375f818301606090810191909152601f909201601f1916010192915050565b60ff818116838216019081111561084957634e487b7160e01b5f52601160045260245ffdfea2646970667358221220bfcc8d372c97b749e9421c1a4019fe0a161001e69305ecf9a04c3244009c558a64736f6c63430008180033","linkReferences":{}},"methodIdentifiers":{"accountImplementation()":"11464fbe","createAccount(address,uint256)":"5fbfb9cf","entryPoint()":"b0d691fe","getAddress(address,uint256)":"8cb84e18"},"id":2}