{"abi":[{"type":"constructor","inputs":[{"name":"_entryPoint","type":"address","internalType":"address"}],"stateMutability":"nonpayable"},{"type":"function","name":"accountImplementation","inputs":[],"outputs":[{"name":"","type":"address","internalType":"address"}],"stateMutability":"view"},{"type":"function","name":"createAccount","inputs":[{"name":"owner","type":"address","internalType":"address"},{"name":"salt","type":"uint256","internalType":"uint256"}],"outputs":[{"name":"","type":"address","internalType":"address"}],"stateMutability":"nonpayable"},{"type":"function","name":"entryPoint","inputs":[],"outputs":[{"name":"","type":"address","internalType":"address"}],"stateMutability":"view"},{"type":"function","name":"getAddress","inputs":[{"name":"owner","type":"address","internalType":"address"},{"name":"salt","type":"uint256","internalType":"uint256"}],"outputs":[{"name":"","type":"address","internalType":"address"}],"stateMutability":"view"},{"type":"event","name":"AccountCreated","inputs":[{"name":"account","type":"address","indexed":true,"internalType":"address"},{"name":"owner","type":"address","indexed":true,"internalType":"address"},{"name":"salt","type":"uint256","indexed":false,"internalType":"uint256"}],"anonymous":false}],"bytecode":{"object":"0x60c060405234801561000f575f80fd5b506040516111c83803806111c883398101604081905261002e91610092565b6001600160a01b03811660a052604051819061004990610085565b6001600160a01b039091168152602001604051809103905ff080158015610072573d5f803e3d5ffd5b506001600160a01b0316608052506100bf565b610d02806104c683390190565b5f602082840312156100a2575f80fd5b81516001600160a01b03811681146100b8575f80fd5b9392505050565b60805160a0516103e16100e55f395f60bc01525f81816053015261032101526103e15ff3fe608060405234801561000f575f80fd5b506004361061004a575f3560e01c806311464fbe1461004e5780635fbfb9cf146100915780638cb84e18146100a4578063b0d691fe146100b7575b5f80fd5b6100757f000000000000000000000000000000000000000000000000000000000000000081565b6040516001600160a01b03909116815260200160405180910390f35b61007561009f366004610376565b6100de565b6100756100b2366004610376565b610250565b6100757f000000000000000000000000000000000000000000000000000000000000000081565b5f806100ea8484610250565b90506001600160a01b0381163b1561010357905061024a565b5f61010c6102f5565b6040516001600160601b0319606088901b166020820152603481018690529091505f906054016040516020818303038152906040528051906020012090505f818351602085015ff590506001600160a01b0381166101a15760405162461bcd60e51b815260206004820152600e60248201526d18dc99585d194c8819985a5b195960921b604482015260640160405180910390fd5b60405163189acdbd60e31b81526001600160a01b03888116600483015282169063c4d66de8906024015f604051808303815f87803b1580156101e1575f80fd5b505af11580156101f3573d5f803e3d5ffd5b50505050866001600160a01b0316816001600160a01b03167f33310a89c32d8cc00057ad6ef6274d2f8fe22389a992cf89983e09fc84f6cfff8860405161023c91815260200190565b60405180910390a393505050505b92915050565b6040516001600160601b0319606084901b166020820152603481018290525f9081906054016040516020818303038152906040528051906020012090505f6102966102f5565b8051602091820120604080516001600160f81b0319818501523060601b6001600160601b031916602182015260358101959095526055808601929092528051808603909201825260759094019093528251920191909120949350505050565b60408051733d602d80600a3d3981f3363d3d373d3d3d363d7360601b60208201526001600160601b03197f000000000000000000000000000000000000000000000000000000000000000060601b1660348201526e5af43d82803e903d91602b57fd5bf360881b604882015281516037818303018152605790910190915290565b5f8060408385031215610387575f80fd5b82356001600160a01b038116811461039d575f80fd5b94602093909301359350505056fea26469706673582212201bf8b6acfa69ed889785719ca3d8c4a8071df59b86c64548d95132185708d0b064736f6c6343000818003360a060405234801561000f575f80fd5b50604051610d02380380610d0283398101604081905261002e91610051565b6001600160a01b03166080525f805460ff60a01b1916600160a01b17905561007e565b5f60208284031215610061575f80fd5b81516001600160a01b0381168114610077575f80fd5b9392505050565b608051610c496100b95f395f818161011601528181610194015281816102ca015281816103a50152818161061201526107ff0152610c495ff3fe608060405260043610610071575f3560e01c8063b0d691fe1161004c578063b0d691fe14610105578063b61d27f614610138578063c399ec8814610157578063c4d66de814610169575f80fd5b806319822f7c1461007c57806347e1da2a146100ae5780638da5cb5b146100cf575f80fd5b3661007857005b5f80fd5b348015610087575f80fd5b5061009b610096366004610929565b610188565b6040519081526020015b60405180910390f35b3480156100b9575f80fd5b506100cd6100c83660046109c0565b610387565b005b3480156100da575f80fd5b505f546100ed906001600160a01b031681565b6040516001600160a01b0390911681526020016100a5565b348015610110575f80fd5b506100ed7f000000000000000000000000000000000000000000000000000000000000000081565b348015610143575f80fd5b506100cd610152366004610a6e565b6105f4565b348015610162575f80fd5b504761009b565b348015610174575f80fd5b506100cd610183366004610aee565b610740565b5f336001600160a01b037f000000000000000000000000000000000000000000000000000000000000000016146101fc5760405162461bcd60e51b81526020600482015260136024820152721b9bdd08199c9bdb48115b9d1c9e541bda5b9d606a1b60448201526064015b60405180910390fd5b5f61020b610100860186610b07565b8080601f0160208091040260200160405190810160405280939291908181526020018383808284375f9201829052506040517f19457468657265756d205369676e6564204d6573736167653a0a3332000000006020820152603c81018a905294955093605c01925061027b915050565b6040516020818303038152906040528051906020012090505f61029e8284610849565b5f549091506001600160a01b038083169116146102c15760019350505050610380565b8415610379575f7f00000000000000000000000000000000000000000000000000000000000000006001600160a01b0316866040515f6040518083038185875af1925050503d805f8114610330576040519150601f19603f3d011682016040523d82523d5f602084013e610335565b606091505b50509050806103775760405162461bcd60e51b815260206004820152600e60248201526d1c1c99599d5b990819985a5b195960921b60448201526064016101f3565b505b5f93505050505b9392505050565b5f546001600160a01b03163314806103c75750336001600160a01b037f000000000000000000000000000000000000000000000000000000000000000016145b6104045760405162461bcd60e51b815260206004820152600e60248201526d1b9bdd08185d5d1a1bdc9a5e995960921b60448201526064016101f3565b848314801561041257508281145b6104505760405162461bcd60e51b815260206004820152600f60248201526e0d8cadccee8d040dad2e6dac2e8c6d608b1b60448201526064016101f3565b5f5b858110156105eb575f8088888481811061046e5761046e610b4a565b90506020020160208101906104839190610aee565b6001600160a01b031687878581811061049e5761049e610b4a565b905060200201358686868181106104b7576104b7610b4a565b90506020028101906104c99190610b07565b6040516104d7929190610b5e565b5f6040518083038185875af1925050503d805f8114610511576040519150601f19603f3d011682016040523d82523d5f602084013e610516565b606091505b509150915081819061053b5760405162461bcd60e51b81526004016101f39190610b6d565b5088888481811061054e5761054e610b4a565b90506020020160208101906105639190610aee565b6001600160a01b03167fcaf938de11c367272220bfd1d2baa99ca46665e7bc4d85f00adb51b90fe1fa9f88888681811061059f5761059f610b4a565b905060200201358787878181106105b8576105b8610b4a565b90506020028101906105ca9190610b07565b6040516105d993929190610bb9565b60405180910390a25050600101610452565b50505050505050565b5f546001600160a01b03163314806106345750336001600160a01b037f000000000000000000000000000000000000000000000000000000000000000016145b6106715760405162461bcd60e51b815260206004820152600e60248201526d1b9bdd08185d5d1a1bdc9a5e995960921b60448201526064016101f3565b5f80856001600160a01b031685858560405161068e929190610b5e565b5f6040518083038185875af1925050503d805f81146106c8576040519150601f19603f3d011682016040523d82523d5f602084013e6106cd565b606091505b50915091508181906106f25760405162461bcd60e51b81526004016101f39190610b6d565b50856001600160a01b03167fcaf938de11c367272220bfd1d2baa99ca46665e7bc4d85f00adb51b90fe1fa9f86868660405161073093929190610bb9565b60405180910390a2505050505050565b5f54600160a01b900460ff161561078f5760405162461bcd60e51b8152602060048201526013602482015272185b1c9958591e481a5b9a5d1a585b1a5e9959606a1b60448201526064016101f3565b6001600160a01b0381166107d55760405162461bcd60e51b815260206004820152600d60248201526c34b73b30b634b21037bbb732b960991b60448201526064016101f3565b5f80546001600160a81b0319166001600160a01b03808416918217600160a01b17835560405191927f0000000000000000000000000000000000000000000000000000000000000000909116917f47e55c76e7a6f1fd8996a1da8008c1ea29699cca35e7bcd057f2dec313b6e5de9190a350565b5f815160411461089b5760405162461bcd60e51b815260206004820152601860248201527f696e76616c6964207369676e6174757265206c656e677468000000000000000060448201526064016101f3565b6020820151604083015160608401515f1a601b8110156108c3576108c0601b82610bee565b90505b604080515f81526020810180835288905260ff831691810191909152606081018490526080810183905260019060a0016020604051602081039080840390855afa158015610913573d5f803e3d5ffd5b5050506020604051035193505050505b92915050565b5f805f6060848603121561093b575f80fd5b833567ffffffffffffffff811115610951575f80fd5b84016101208187031215610963575f80fd5b95602085013595506040909401359392505050565b5f8083601f840112610988575f80fd5b50813567ffffffffffffffff81111561099f575f80fd5b6020830191508360208260051b85010111156109b9575f80fd5b9250929050565b5f805f805f80606087890312156109d5575f80fd5b863567ffffffffffffffff808211156109ec575f80fd5b6109f88a838b01610978565b90985096506020890135915080821115610a10575f80fd5b610a1c8a838b01610978565b90965094506040890135915080821115610a34575f80fd5b50610a4189828a01610978565b979a9699509497509295939492505050565b80356001600160a01b0381168114610a69575f80fd5b919050565b5f805f8060608587031215610a81575f80fd5b610a8a85610a53565b935060208501359250604085013567ffffffffffffffff80821115610aad575f80fd5b818701915087601f830112610ac0575f80fd5b813581811115610ace575f80fd5b886020828501011115610adf575f80fd5b95989497505060200194505050565b5f60208284031215610afe575f80fd5b61038082610a53565b5f808335601e19843603018112610b1c575f80fd5b83018035915067ffffffffffffffff821115610b36575f80fd5b6020019150368190038213156109b9575f80fd5b634e487b7160e01b5f52603260045260245ffd5b818382375f9101908152919050565b5f602080835283518060208501525f5b81811015610b9957858101830151858201604001528201610b7d565b505f604082860101526040601f19601f8301168501019250505092915050565b83815260406020820152816040820152818360608301375f818301606090810191909152601f909201601f1916010192915050565b60ff818116838216019081111561092357634e487b7160e01b5f52601160045260245ffdfea2646970667358221220aac7b4c3c763687d837b9fe709a1c2dc3d397c819f3ea3fda1fc20116085434d64736f6c63430008180033","linkReferences":{}},"methodIdentifiers":{"accountImplementation()":"11464fbe","createAccount(address,uint256)":"5fbfb9cf","entryPoint()":"b0d691fe","getAddress(address,uint256)":"8cb84e18"},"id":34}